{
  "_format": "hh3-artifact-1",
  "contractName": "KilauDeFi",
  "sourceName": "contracts/KilauDeFi.sol",
  "abi": [
    {
      "inputs": [
        {
          "internalType": "uint256",
          "name": "_initialScore",
          "type": "uint256"
        }
      ],
      "stateMutability": "nonpayable",
      "type": "constructor"
    },
    {
      "anonymous": false,
      "inputs": [
        {
          "indexed": false,
          "internalType": "uint256",
          "name": "newScore",
          "type": "uint256"
        }
      ],
      "name": "MinimumScoreUpdated",
      "type": "event"
    },
    {
      "anonymous": false,
      "inputs": [
        {
          "indexed": true,
          "internalType": "address",
          "name": "prover",
          "type": "address"
        },
        {
          "indexed": false,
          "internalType": "bytes32",
          "name": "commitment",
          "type": "bytes32"
        }
      ],
      "name": "ProofSubmitted",
      "type": "event"
    },
    {
      "anonymous": false,
      "inputs": [
        {
          "indexed": true,
          "internalType": "address",
          "name": "prover",
          "type": "address"
        },
        {
          "indexed": false,
          "internalType": "bool",
          "name": "isEligible",
          "type": "bool"
        }
      ],
      "name": "VerificationStatusUpdated",
      "type": "event"
    },
    {
      "inputs": [],
      "name": "adminOwner",
      "outputs": [
        {
          "internalType": "address",
          "name": "",
          "type": "address"
        }
      ],
      "stateMutability": "view",
      "type": "function"
    },
    {
      "inputs": [
        {
          "internalType": "address",
          "name": "",
          "type": "address"
        }
      ],
      "name": "isVerifiedEligible",
      "outputs": [
        {
          "internalType": "bool",
          "name": "",
          "type": "bool"
        }
      ],
      "stateMutability": "view",
      "type": "function"
    },
    {
      "inputs": [],
      "name": "minimumCreditScore",
      "outputs": [
        {
          "internalType": "uint256",
          "name": "",
          "type": "uint256"
        }
      ],
      "stateMutability": "view",
      "type": "function"
    },
    {
      "inputs": [
        {
          "internalType": "uint256",
          "name": "_score",
          "type": "uint256"
        }
      ],
      "name": "setMinimumScore",
      "outputs": [],
      "stateMutability": "nonpayable",
      "type": "function"
    },
    {
      "inputs": [
        {
          "internalType": "bytes",
          "name": "proof",
          "type": "bytes"
        },
        {
          "internalType": "uint256[]",
          "name": "publicInputs",
          "type": "uint256[]"
        }
      ],
      "name": "submitCreditProof",
      "outputs": [],
      "stateMutability": "nonpayable",
      "type": "function"
    }
  ],
  "bytecode": "0x6080604052348015600e575f5ffd5b50604051610518380380610518833981016040819052602b916043565b5f80546001600160a01b031916331790556001556059565b5f602082840312156052575f5ffd5b5051919050565b6104b2806100665f395ff3fe608060405234801561000f575f5ffd5b5060043610610055575f3560e01c80630e1d6c28146100595780631417b9461461006e57806345c589ae1461009d57806368f4997a146100b0578063db3bb857146100e2575b5f5ffd5b61006c610067366004610336565b6100f9565b005b5f54610080906001600160a01b031681565b6040516001600160a01b0390911681526020015b60405180910390f35b61006c6100ab3660046103f5565b610177565b6100d26100be36600461040c565b60036020525f908152604090205460ff1681565b6040519015158152602001610094565b6100eb60015481565b604051908152602001610094565b5f828260405160200161010d929190610439565b60408051808303601f190181528282528051602091820120335f8181526002845293909320819055808452935090917f6001ac408879869d65636618cd8495cce3026445823e6de88d46ade8a9c81c79910160405180910390a261017233848461020f565b505050565b5f546001600160a01b031633146101d45760405162461bcd60e51b815260206004820152601a60248201527f416b736573206469746f6c616b3a2048616e79612041646d696e000000000000604482015260640160405180910390fd5b60018190556040518181527f8ed6eb5f6e7429de84caa9953c40c76c3b1504d682d5b81adff57d92ce06013d9060200160405180910390a150565b6001600160a01b0383165f81815260036020908152604091829020805460ff1916600190811790915591518281529192917f3c6bc48ebe477f574c25b2568b7dd066cb7639e15f2d92e73faa6bba93c56c62910160405180910390a250505050565b634e487b7160e01b5f52604160045260245ffd5b604051601f8201601f1916810167ffffffffffffffff811182821017156102ae576102ae610271565b604052919050565b5f82601f8301126102c5575f5ffd5b813567ffffffffffffffff8111156102df576102df610271565b8060051b6102ef60208201610285565b9182526020818501810192908101908684111561030a575f5ffd5b6020860192505b8383101561032c578235825260209283019290910190610311565b9695505050505050565b5f5f60408385031215610347575f5ffd5b823567ffffffffffffffff81111561035d575f5ffd5b8301601f8101851361036d575f5ffd5b803567ffffffffffffffff81111561038757610387610271565b61039a601f8201601f1916602001610285565b8181528660208385010111156103ae575f5ffd5b816020840160208301375f60208383010152809450505050602083013567ffffffffffffffff8111156103df575f5ffd5b6103eb858286016102b6565b9150509250929050565b5f60208284031215610405575f5ffd5b5035919050565b5f6020828403121561041c575f5ffd5b81356001600160a01b0381168114610432575f5ffd5b9392505050565b5f83518060208601845e5f908301818152845160208601925b81811015610470578351835260209384019390920191600101610452565b5090969550505050505056fea26469706673582212205727ce12454d4394e9363af8004ca9e21e8078a5e24e616eaf2912bfa07fbddb64736f6c634300081c0033",
  "linkReferences": {},
  "deployedLinkReferences": {},
  "immutableReferences": {},
  "inputSourceName": "project/contracts/KilauDeFi.sol",
  "buildInfoId": "solc-0_8_28-cf629d388691d35cc1837feea6017983e1030c4d"
}